:020000040000FA
:100000008A111128FF3FFF3FFE00030E83120313E6
:10001000A1000408A2000A08A3007F08A4008A1512
:10002000E12E8A1113288313D230FD000F30FE0019
:10003000CE30FF00A03084008A15F5268A11573093
:1000400084006A308A15D92683018A115B2B472BDD
:100050005F08031D2D2807162E280712E1010F3017
:10006000610203180800AA01AA0A61088A156D270F
:100070008A1183120313C30120308A11E3278A11E6
:10008000013083120313C9004908E1072F28AA0190
:10009000AA0A00308A156D278A1183120313C3013F
:1000A000FF308A11E3278A1183120313E1010F3015
:1000B000610203180800AA01AA0A6108013E8A1514
:1000C0006D278A1183120313C30120308A11E3279D
:1000D0008A11013083120313C9004908E107572828
:1000E000E0010230600203188C28AA01AA0A600805
:1000F0008A156D278A1183120313C301FF308A11F9
:10010000E3278A11013083120313C9004908E0076D
:1001100002306002031C7528E1010F3061020318F0
:100120000800AA01AA0A6108023E8A156D278A11F1
:1001300083120313C30120308A11E3278A1101308F
:1001400083120313C9004908E1078D28E001033039
:1001500060020318C228AA01AA0A60088A156D273E
:100160008A1183120313C301FF308A11E3278A1116
:10017000013083120313C9004908E007033060020D
:10018000031CAB28E1010F30610203180800AA012B
:10019000AA0A6108033E8A156D278A118312031388
:1001A000C30120308A11E3278A110130831203131F
:1001B000C9004908E107C328E001043060020318C0
:1001C000F828AA01AA0A60088A156D278A118312E5
:1001D0000313C301FF308A11E3278A110130831210
:1001E0000313C9004908E00704306002031CE1283A
:1001F000E1010F30610203180800AA01AA0A610890
:10020000043E8A156D278A1183120313C30120301F
:100210008A11E3278A11013083120313C9004908A8
:10022000E107F928E0010530600203182E29AA0130
:10023000AA0A60088A156D278A1183120313C30165
:10024000FF308A11E3278A11013083120313C9009A
:100250004908E00705306002031C1729E1010F304F
:10026000610203180800AA01AA0A6108053E8A155E
:100270006D278A1183120313C30120308A11E327EB
:100280008A11013083120313C9004908E1072F299D
:10029000E0010630600203186429AA01AA0A600876
:1002A0008A156D278A1183120313C301FF308A1147
:1002B000E3278A11013083120313C9004908E007BC
:1002C00006306002031C4D29E1010F306102031862
:1002D0000800AA01AA0A6108063E8A156D278A113C
:1002E00083120313C30120308A11E3278A110130DE
:1002F00083120313C9004908E1076529E0010730AB
:10030000600203189A29AA01AA0A60088A156D27B3
:100310008A1183120313C301FF308A11E3278A1164
:10032000013083120313C9004908E0070730600257
:10033000031C8329E1010F30610203180800AA01A0
:10034000AA0A6108073E8A156D278A1183120313D2
:10035000C30120308A11E3278A110130831203136D
:10036000C9004908E1079B29E00108306002031831
:10037000D029AA01AA0A60088A156D278A1183125A
:100380000313C301FF308A11E3278A11013083125E
:100390000313C9004908E00708306002031CB929AB
:1003A000E1010F30610203180800AA01AA0A6108DE
:1003B000083E8A156D278A1183120313C30120306A
:1003C0008A11E3278A11013083120313C9004908F7
:1003D000E107D129E001093060020318062AAA01C9
:1003E000AA0A60088A156D278A1183120313C301B4
:1003F000FF308A11E3278A11013083120313C900E9
:100400004908E00709306002031CEF29E1010F30C1
:10041000610203180800AA01AA0A6108093E8A15A8
:100420006D278A1183120313C30120308A11E32739
:100430008A11013083120313C9004908E107072A12
:10044000E0010A30600203183C2AAA01AA0A6008E7
:100450008A156D278A1183120313C301FF308A1195
:10046000E3278A11013083120313C9004908E0070A
:100470000A306002031C252AE1010F3061020318D3
:100480000800AA01AA0A61080A3E8A156D278A1186
:1004900083120313C30120308A11E3278A1101302C
:1004A00083120313C9004908E1073D2AE0010B301C
:1004B00060020318722AAA01AA0A60088A156D2729
:1004C0008A1183120313C301FF308A11E3278A11B3
:1004D000013083120313C9004908E0070B306002A2
:1004E000031C5B2AE1010F30610203180800AA0116
:1004F000AA0A61080B3E8A156D278A11831203131D
:10050000C30120308A11E3278A11013083120313BB
:10051000C9004908E107732AE0010C3060020318A2
:10052000A82AAA01AA0A60088A156D278A118312CF
:100530000313C301FF308A11E3278A1101308312AC
:100540000313C9004908E0070C306002031C912A1C
:10055000E1010F30610203180800AA01AA0A61082C
:100560000C3E8A156D278A1183120313C3012030B4
:100570008A11E3278A11013083120313C900490845
:10058000E107A92AE0010D3060020318DE2AAA0162
:10059000AA0A60088A156D278A1183120313C30102
:1005A000FF308A11E3278A11013083120313C90037
:1005B0004908E0070D306002031CC72AE1010F3033
:1005C000610203180800AA01AA0A61080D3E8A15F3
:1005D0006D278A1183120313C30120308A11E32788
:1005E0008A11013083120313C9004908E107DF2A89
:1005F000E0010E3060020318142BAA01AA0A600859
:100600008A156D278A1183120313C301FF308A11E3
:10061000E3278A11013083120313C9004908E00758
:100620000E306002031CFD2AE1010F306102031845
:100630000800AA01AA0A61080E3E8A156D278A11D0
:1006400083120313C30120308A11E3278A1101307A
:1006500083120313C9004908E107152BE00110308C
:10066000600203180800AA01AA0A60088A156D270B
:100670008A1183120313C301FF308A11E3278A1101
:10068000013083120313C9004908E0072F2B83129E
:1006900003134808003A03194E2B5A2B47088400CD
:1006A0001F3004020318080008308A000310040DEC
:1006B000003E82000800003083120313D000003097
:1006C000D1000030D200D401D3010F3083160313C0
:1006D00085008312031385018316031387018601A6
:1006E00007308100A0308B00831203138101831631
:1006F00003131F119F101F14831203131F139F1343
:100700001F148A1194258A118A1555278A1183127C
:100710000313AA0106308A156D278A118312031369
:10072000D501D601003056020930031955020318CD
:10073000BC2BC3015508CA004A07A03E840083139E
:1007400000088A11E3278A11C73083120313CA00F5
:10075000A92BCA0BA82BAC2B00000130831203136A
:10076000D5070318D60A0030D607003056020930E4
:1007700003195502031C992BAA01AA0A00308A15F5
:100780006D278A11093083120313D5000030D6007B
:10079000003056021930031955020318F82BC30113
:1007A0005508CA004A07A03E8400831300088A1136
:1007B000E3278A11063083120313CC001330CB00D9
:1007C000AD30CA00CA0BE22BCB0BE22BCC0BE22BD9
:1007D0000000013083120313D5070318D60A003036
:1007E000D60700305602193003195502031CCF2BCF
:1007F000C301C30A01308A11E3278A11831203134C
:100800001F151F19012C203083120313CA00CA0BB5
:10081000072C0A2C831203131E08CA00CB014A08B6
:10082000AE004B08AF008A1526278A1183120313E6
:100830002E08D0002F08D1003008D200FF30BA00B7
:100840000030BB005008A6005108A7005208A800BD
:100850008A113F268A11831203132608CA00CB018E
:100860004A08B4004B08B5001F30B6000030B7008E
:100870008A15AB278A11831203133508BD0034088B
:10088000BC008A113B278A11831203133A08CC005B
:100890004C08D400FF30BA000030BB005008A6005E
:1008A0005108A7005208A8008A113F268A11831216
:1008B00003132608CA00CB014A08B4004B08B50050
:1008C0001930B6000030B7008A15AB278A118312A1
:1008D00003133508BD003408BC008A113B278A1178
:1008E000831203133A08CC004C08D3004E084F047F
:1008F000031D132D0130CE000030CF00AA010030BF
:100900008A156D278A11831203139F151F129F12D8
:10091000C3010A30BA000030BB005408CA00CB0142
:100920004A08BC004B08BD008A113B278A1183127C
:1009300003133A08303E8A11E3278A118312031306
:10094000C3010A30AA000030AB005408CA00CB0132
:100950004A08AC004B08AD008A1196278A11831211
:1009600003132A08303E8A11E3278A1183120313E6
:10097000C3012E308A11E3278A1183120313C301A6
:100980000A30AA000030AB006430CA004A08A60052
:1009900054088A1513278A1183120313CB00CC0144
:1009A0004B08AC004C08AD008A1196278A118312BF
:1009B00003132A08303E8A11E3278A118312031396
:1009C000C3010A30AA000030AB00E830CA004A0870
:1009D000A60054088A1513278A1183120313CB002B
:1009E000CC014B08AC004C08AD008A1196278A1147
:1009F000831203132A08303E8A11E3278A118312D7
:100A00000313C30142308A11E3278A1183120313AF
:100A10005408CA00CB014A08C7004B08C8008A1115
:100A200027208A11FE2B83120313CE01CF01AA01C6
:100A300007308A156D278A11831203139F111F1225
:100A40009F120A30BA000030BB005308CA00CB0125
:100A50004A08BC004B08BD008A113B278A1183124B
:100A600003133A08303ECC004C08E3002E30CA0095
:100A70004A08E4000A30AA000030AB005308CA005C
:100A8000CB014A08AC004B08AD008A1196278A11A9
:100A9000831203132A08303ECC004C08E5000A30CC
:100AA000AA000030AB006430CA004A08A600530810
:100AB0008A1513278A1183120313CB00CC014B082C
:100AC000AC004C08AD008A1196278A1183120313DB
:100AD0002A08303ECD004D08E6000A30AA0000305A
:100AE000AB00E830CA004A08A60053088A1513274D
:100AF0008A1183120313CB00CC014B08AC004C08C5
:100B0000AD008A1196278A11831203132A08303EFA
:100B1000CD004D08E7004130CA004A08E8006330C4
:100B20008A158B278A11FE2B413083120313AB00E9
:100B3000EE30AA00AA0B9A2DAB0B9A2D8312031349
:100B4000A80130308A1501278A114130831203131E
:100B5000AB00EE30AA00AA0BAB2DAB0BAB2D831272
:100B60000313A80130308A1501278A110C30831233
:100B70000313AA00AA0BBA2DBD2D83120313A801DB
:100B800030308A1501278A110C3083120313AA0012
:100B9000AA0BC82DCB2D83120313A8013C308A1554
:100BA00001278A110C3083120313AA00AA0BD62D39
:100BB000D92D83120313A8010C308A1501278A113D
:100BC0000C3083120313AA00AA0BE42DE72D831225
:100BD0000313A80101308A1501278A1103308312FB
:100BE0000313AB009730AA00AA0BF42DAB0BF42D26
:100BF000000083120313A80107308A1501278A1108
:100C00000C3083120313AA00AA0B042E072E8312A2
:100C10000313A80114308A1501278A110C3083129E
:100C20000313AA00AA0B122E152E83120313A80178
:100C300002308A1501278A110C3083120313AA008F
:100C4000AA0B202E232E83120313A80140308A15ED
:100C500001278A110C3083120313AA00AA0B2E2E2F
:100C6000312E83120313A80106308A1501278A1139
:100C700083120313A80180308A150127080083120C
:100C800003132608AA002708AB002808AC000310AD
:100C90002B0D2C0DAD002D08B3003308031D592E6C
:100CA0000030A9000030A8000030A7000030A600E6
:100CB00008002608AA002708AB002808AC00173057
:100CC0000310AC0CAB0CAA0CFF3E031D602E2A08CF
:100CD000AD002D08AE00A717FF30A605FF30A70511
:100CE0000030A8052608AF002708B0002808B1008A
:100CF000B2018E30B302B31F9B2E3308803A8F3E71
:100D000003188B2E0030A9000030A8000030A70087
:100D10000030A600080001300310B20CB10CB00C7A
:100D2000AF0CFF3E031D8C2E0130AA002A08B3072A
:100D30000319B62E8B2E18303302031CB32E00304D
:100D4000A9000030A8000030A7000030A60008006D
:100D50000130AA000310AF0DB00DB10DB20DAA0BFA
:100D6000AA2E0130B3023308031DA82E2E08031942
:100D7000C42EAF09B009B109B209AF0A0319B00A0C
:100D80000319B10A0319B20A3208A9003108A800F0
:100D90003008A7002F08A6000800831203132908B3
:100DA0000319D72E280827042604031DEA2E003035
:100DB000A6000030A7000030A80008000130AB00FA
:100DC0002B08A90701300310A80CA70CA60CFF3EA6
:100DD000031DE32EFE3028050319052FDE2E0130FA
:100DE000AB002B08A9070130A6070030031801301B
:100DF000A707003003180130A80701300310A80C22
:100E0000A70CA60CFF3E031DFE2EFF30280503197C
:100E1000142FEF2E0130A90201300310A60DA70DEB
:100E2000A80DFF3E031D0D2FA71B1A2F023029020C
:100E300003180A2F2918222FFF30A6057F30A70597
:100E4000FF30A8050310A90C2908AB00AC01AD01C7
:100E500010300310AB0DAC0DAD0DFF3E031D292F5F
:100E60002B08A6042C08A7042D08A8042A08031997
:100E70000800A817080083120313C001BB1F472FE7
:100E8000BA09BB09BA0A0319BB0AC001C00ABD1FCF
:100E9000522FBC09BD09BC0A0319BD0A0130BE00AE
:100EA0003E08C006C101C2013A083B040319892F5C
:100EB000BF01BF0ABB1B682F01300310BA0DBB0D69
:100EC000FF3E031D5D2F0130BE003E08BF075A2FB5
:100ED00001300310C10DC20DFF3E031D692F3B08F9
:100EE0003D02031D752F3A083C02031C7E2F3A0871
:100EF000BC023B08031CBD03BD02411401300310BA
:100F0000BB0CBA0CFF3E031D7F2F0130BF02031D37
:100F1000682F40080319912FC109C209C10A03199A
:100F2000C20A4208BB004108BA000800831203133A
:100F3000B001AD1FA22FAC09AD09AC0A0319AD0A6F
:100F4000B001B00AAB1FA92FAA09AB09AA0A03195D
:100F5000AB0A2A082B040319D62FAF01AF0AAB1B2B
:100F6000BD2F01300310AA0DAB0DFF3E031DB22FA4
:100F70000130AE002E08AF07AF2F2B082D02031D46
:100F8000C32F2A082C02031CCB2F2A08AC022B08E3
:100F9000031CAD03AD0201300310AB0CAA0CFF3EE5
:100FA000031DCC2F0130AF02031DBD2F30080319E4
:100FB000DE2FAC09AD09AC0A0319AD0A2D08AB0050
:100FC0002C08AA00080083120313C60046088600F6
:100FD0004308031DED2F0717EE2F07138713073064
:100FE00083120313C5007C30C400C40BF52FC50B5E
:100FF000F52FFA2F8312031387170800FF3FFF3FD7
:101000008A1128288A1147288A1147288A117028AE
:101010008A1170288A11A6288A11A6288A11DC282C
:101020008A11DC288A1112298A1112298A11482969
:101030008A1148298A117E298A117E298A11B429A8
:101040008A11B4298A11EA298A11EA298A11202AE7
:101050008A11202A8A11562A8A11562A8A118C2A24
:101060008A118C2A8A11C22A8A11C22A8A11F82A64
:101070008A11F82A8A112E2B8A112E2BFF3FFF3F4F
:10108000FF3FFF3FFF3FFF3FFF3FFF3FFF3FFF3F70
:10109000FF3FFF3FFF3FFF3FFF3FFF3FFF3FFF3F60
:1010A000FF3FFF3FFF3FFF3FFF3FFF3FFF3FFF3F50
:1010B000FF3FFF3FFF3FFF3FFF3FFF3FFF3FFF3F40
:101DB000FF3F64008001840A04060319003404060E
:101DC000DA2E0130A0002008A5070B112408FF001F
:101DD00023088A0022088400210E8300FE0E7E0E56
:101DE00009007E088A007F088200F1268A1580009B
:101DF000840A04087D0603190034FF0A0319FE0A49
:101E0000F52E83120313A900290886002808031D54
:101E10000B2F07130C2F071787138A153D278312E3
:101E200003138717080083120313A900A801291CB4
:101E30001D2F2608A7002708A8070310A60D0310CA
:101E4000A90C2908031D172F280808008312031363
:101E50002E08A6002F08A700A8018E30B100310877
:101E6000A900AA018A11CD26831203132608AE0009
:101E70002708AF002808B000080083120313A6014A
:101E8000A7012708803AFF0080307F02031D4A2FF8
:101E90001330260203180800013083120313A6072B
:101EA0000318A70A0030A707412F83120313A601C6
:101EB000A7012708803AFF0080307F02031D622FB0
:101EC0001330260203180800013083120313A607FB
:101ED0000318A70A0030A707592F83120313AB007A
:101EE000802FA8012B0880388A150127080083124B
:101EF0000313A8012B08403E80388A1501270800EB
:101F0000831203132A08003A0319712F013A0319A7
:101F1000772F8A2F080083120313AB00AC012C0823
:101F20002B07AA002A08840083130008031908005D
:101F3000A801A80A2C082B07AA002A0884008313EA
:101F400000088A1501278A15013083120313AA009D
:101F50002A08AC078F2F83120313B801B901341C70
:101F6000B72F3608B8070318B90A3708B907013080
:101F70000310B60DB70DFF3E031DB82F013003103F
:101F8000B50CB40CFF3E031DBF2F34083504031DF0
:101F9000AF2F3908B5003808B4000800A434003465
:101FA000A434003441340034A134003450340034BB
:101FB000A9340034A43400344B34003441340034A8
:101FC0002E3400342E3400342E3400342E340034B9
:101FD0002E3400342E3400342E3400342E340034A9
:101FE0002E3400342E3400342E3400342E34003499
:101FF0002E3400342E3400342E3400342E34003489
:02400E00B23FBF
:08400000FF3FFF3FFF3FFF3FC0
:00000001FF
