:040000008A11F12F41
:10039A0064008001840A0406031900340406CE2985
:1003AA0083120313A300230886002208031DDF29F2
:1003BA000713E029071787138A11FA2183120313F7
:1003CA008717080083120313A300A201231CF12933
:1003DA002008A1002108A2070310A00D0310A30CF6
:1003EA002308031DEB292208080083120313A00126
:1003FA00A1012108803AFF0080307F02031D072AED
:10040A001330200203180800013083120313A007D7
:10041A000318A10A0030A107FE2983120313A001C1
:10042A00A1012108803AFF0080307F02031D1F2AA4
:10043A001330200203180800013083120313A007A7
:10044A000318A10A0030A107162A83120313B30066
:10045A00330886003008031D342A0717352A071384
:10046A008713073083120313B2007C30B100B10B3B
:10047A003C2AB20B3C2A412A83120313871708002D
:10048A0083120313A500582AA201250880388A116D
:10049A00D521080083120313A2012508403E8038A3
:1004AA008A11D5210800831203132408003A03197C
:1004BA00492A013A03194F2A622A080083120313B0
:1004CA00A500A60126082507A40024088400831392
:1004DA00000803190800A201A20A26082507A40099
:1004EA0024088400831300088A11D5218A11013057
:1004FA0083120313A4002408A607672A831203138E
:10050A00AD01A91F8F2AA809A909A80A0319A90ACE
:10051A00AD01AD0A2808A0002908A100A2018E3069
:10052A00AB002B08A3002D08AC002C08A4008A11EC
:10053A004F23831203132008A8002108A9002208C8
:10054A00AA00080083120313AF01AC1FB32AAB0938
:10055A00AC09AB0A0319AC0AAF01AF0AAA1FBA2A3F
:10056A00A909AA09A90A0319AA0A29082A0403191E
:10057A00E72AAE01AE0AAA1BCE2A01300310A90D42
:10058A00AA0DFF3E031DC32A0130AD002D08AE0798
:10059A00C02A2A082C02031DD42A29082B02031C6C
:1005AA00DC2A2908AB022A08031CAC03AC0201307E
:1005BA000310AA0CA90CFF3E031DDD2A0130AE026E
:1005CA00031DCE2A2F080319EF2AAB09AC09AB0A7F
:1005DA000319AC0A2C08AA002B08A90008008312E8
:1005EA000313A601A11F002BA009A109A00A031940
:1005FA00A10AA601A60AA31F0B2BA209A309A20AF4
:10060A000319A30A0130A4002408A606A701A80119
:10061A00200821040319422BA501A50AA11B212B9D
:10062A0001300310A00DA10DFF3E031D162B013052
:10063A00A4002408A507132B01300310A70DA80D49
:10064A00FF3E031D222B21082302031D2E2B200807
:10065A002202031C372B2008A2022108031CA30331
:10066A00A302271401300310A10CA00CFF3E031DA6
:10067A00382B0130A502031D212B260803194A2B0A
:10068A00A709A809A70A0319A80A2808A100270880
:10069A00A00008008312031323080319592B220808
:1006AA0021042004031D6C2B0030A0000030A1009F
:1006BA000030A20008000130A5002508A307013078
:1006CA000310A20CA10CA00CFF3E031D652BFE30EB
:1006DA0022050319872B602B0130A5002508A307E3
:1006EA000130A007003003180130A10700300318B9
:1006FA000130A20701300310A20CA10CA00CFF3E8E
:10070A00031D802BFF3022050319962B712B013014
:10071A00A30201300310A00DA10DA20DFF3E031D7F
:10072A008F2BA11B9C2B0230230203188C2B23181E
:10073A00A42BFF30A0057F30A105FF30A2050310CE
:10074A00A30C2308A500A601A70110300310A50DCC
:10075A00A60DA70DFF3E031DAB2B2508A0042608F6
:10076A00A1042708A204240803190800A2170800F4
:10077A00831203134E08D2004F08D3005008D40046
:10078A000310530D540DD5005508DB005B08031DFB
:10079A00D72B0030D1000030D0000030CF0000301D
:1007AA00CE0008004E08D2004F08D3005008D400EB
:1007BA0017300310D40CD30CD20CFF3E031DDE2BD2
:1007CA005208D5005508D600CF17FF30CE05FF30A6
:1007DA00CF050030D0054E08D7004F08D800500882
:1007EA00D900DA018E30DB02DB1F192C5B08803A54
:1007FA008F3E0318092C0030D1000030D0000030A1
:10080A00CF000030CE00080001300310DA0CD90CFA
:10081A00D80CD70CFF3E031D0A2C0130D200520817
:10082A00DB070319342C092C18305B02031C312C0A
:10083A000030D1000030D0000030CF000030CE00B0
:10084A0008000130D2000310D70DD80DD90DDA0DEA
:10085A00D20B282C0130DB025B08031D262C56081C
:10086A000319422CD709D809D909DA09D70A031971
:10087A00D80A0319D90A0319DA0A5A08D1005908F9
:10088A00D0005808CF005708CE0008004130831224
:10089A000313A500EE30A400A40B512CA50B512C78
:1008AA0083120313A20130308A11D5218A114130F3
:1008BA0083120313A500EE30A400A40B622CA50B2F
:1008CA00622C83120313A20130308A11D5218A11B6
:1008DA000C3083120313A400A40B712C742C831202
:1008EA000313A20130308A11D5218A110C308312E8
:1008FA000313A400A40B7F2C822C83120313A201DE
:10090A003C308A11D5218A110C3083120313A400BA
:10091A00A40B8D2C902C83120313A2010C308A1184
:10092A00D5218A110C3083120313A400A40B9B2C2B
:10093A009E2C83120313A20101308A11D5218A1138
:10094A00033083120313A5009730A400A40BAB2C29
:10095A00A50BAB2C000083120313A20107308A11E6
:10096A00D5218A110C3083120313A400A40BBB2CCB
:10097A00BE2C83120313A20114308A11D5218A11C5
:10098A000C3083120313A400A40BC92CCC2C8312A1
:10099A000313A20102308A11D5218A110C30831265
:1009AA000313A400A40BD72CDA2C83120313A2017D
:1009BA0040308A11D5218A110C3083120313A40006
:1009CA00A40BE52CE82C83120313A20106308A112A
:1009DA00D5218A1183120313A20180308A11D521ED
:1009EA000800831203134108C4004208C5004308E3
:1009FA00C6000310450D460DC7004708CC004C0839
:100A0A00031D0E2D0030BE000030BF000030C000B4
:100A1A0008003E08C4003F08C5004008C60003108D
:100A2A00450D460DC7004708CD004D08031D242D6E
:100A3A000030BE000030BF000030C00008000030A7
:100A4A00C9000030CA000030CB0089304D07C4000D
:100A5A004408CC024108C4004208C5004308C60045
:100A6A0010300310C60CC50CC40CFF3E031D362DF6
:100A7A004408C7004708CD003E08C4003F08C50027
:100A8A004008C60010300310C60CC50CC40CFF3E4B
:100A9A00031D482D4408C7004708CD068030C4000E
:100AAA004408CD05C217FF30C105FF30C20500302A
:100ABA00C305BF17FF30BE05FF30BF050030C005B4
:100ACA001830C4004408C80001300310C90DCA0D0B
:100ADA00CB0DFF3E031D6A2D40084302031D7B2DEB
:100AEA003F084202031D7B2D3E084102031C882D4C
:100AFA003E08C1023F08031C3F0FC2024008031C04
:100B0A00400AC302491401300310C10DC20DC30DBE
:100B1A00FF3E031D892D0130C802031D692D4908B6
:100B2A00A0004A08A1004B08A2004C08C4004408CF
:100B3A00A3004D08C5004508A4008A114F2383125B
:100B4A0003132008BE002108BF002208C0000800C5
:100B5A00831203132E08B4002F08B5003008B6001C
:100B6A000310350D360DB7003708B8003808031DD5
:100B7A00C52D0030AE000030AF000030B0000800D4
:100B8A003108B4003208B5003308B6000310350D39
:100B9A00360DB7003708BD003D08031DDB2D0030B8
:100BAA00AE000030AF000030B00008003D087B3EC8
:100BBA00B4003408B8072E08B4002F08B50030086E
:100BCA00B60010300310B60CB50CB40CFF3E031D72
:100BDA00E72D3408B7003708BD003108B4003208E1
:100BEA00B5003308B60010300310B60CB50CB40CBF
:100BFA00FF3E031DF92D3408B7003708BD068030C3
:100C0A00B4003408BD05AF17B217FF30B105FF3085
:100C1A00B2050030B3050030B9000030BA00003028
:100C2A00BB000730B4003408BC002E1C2A2E310841
:100C3A00B907320803110318320A031DBA07330829
:100C4A0003110318330A031DBB0701300310B00C4C
:100C5A00AF0CAE0CFF3E031D2B2E01300310B10D5D
:100C6A00B20DB30DFF3E031D332E0130BC02031D2E
:100C7A001A2E0930B4003408BC002E1C522E31083A
:100C8A00B907320803110318320A031DBA073308D9
:100C9A0003110318330A031DBB0701300310B00CFC
:100CAA00AF0CAE0CFF3E031D532E01300310BB0CDC
:100CBA00BA0CB90CFF3E031D5B2E0130BC02031DAA
:100CCA00422E3908A0003A08A1003B08A2003808C1
:100CDA00B4003408A3003D08B5003508A4008A1101
:100CEA004F23831203132008AE002108AF00220805
:100CFA00B000080083120313E001E101E301E401FB
:100D0A00E501E601E2010730831603138500831229
:100D1A0003138501831603138701860183120313C4
:100D2A001F179F138101831603131F159F101F108E
:100D3A00831203131F148A114B248A118A11122257
:100D4A008A11831203131F151F19A92E0230831249
:100D5A000313DC00DC0BAF2EB22E831203131E0822
:100D6A00DC00DD015C08E0005D08E1006108A90023
:100D7A006008A8008A1183228A11831203132808A3
:100D8A00B1002908B2002A08B3000030AE00FA30D8
:100D9A00AF004330B0008A11AD258A1183120313C4
:100DAA002E08C1002F08C2003008C3000030BE0060
:100DBA007F30BF004330C0008A11F6248A118312A3
:100DCA0003133E08CE003F08CF004008D0008A1126
:100DDA00BD238A11831203134F08E4004E08E3006F
:100DEA006208031D772FE201A40100308A1145220F
:100DFA008A11831203139F151F129F12B0010A3022
:100E0A00A9000030AA006408A3006308A2006430A5
:100E1A00A0000030A1008A11F4228A118312031360
:100E2A002008DC00DD015C08AB005D08AC008A111B
:100E3A00A7228A11831203132908303E8A112A2213
:100E4A008A1183120313B0010A30A9000030AA00E4
:100E5A000A30DC005C08A00063088A11E7218A11C5
:100E6A0083120313DD00DE015D08AB005E08AC00EF
:100E7A008A11A7228A11831203132908303E8A1184
:100E8A002A228A1183120313B0012E308A112A22D0
:100E9A008A1183120313B0010A30A9000030AA0094
:100EAA006430DC005C08A00063088A11E7218A111B
:100EBA0083120313DD00DE015D08AB005E08AC009F
:100ECA008A11A7228A11831203132908303E8A1134
:100EDA002A228A1183120313B00142308A112A226C
:100EEA008A11A62E83120313E201A40107308A1184
:100EFA0045228A11831203139F111F129F120A306F
:100F0A00A0000030A1006608A3006508A2008A11AB
:100F1A00F4228A11831203132008303EDC005C0895
:100F2A00ED002E30DC005C08EE000A30A90000302B
:100F3A00AA006608AC006508AB008A11A7228A11CC
:100F4A00831203132908303EDC005C08EF000A30E4
:100F5A00A9000030AA006430DC005C08A000650823
:100F6A008A11E7218A1183120313DD00DE015D086D
:100F7A00AB005E08AC008A11A7228A118312031300
:100F8A002908303EDF005F08F0000A30A90000306F
:100F9A00AA00E830DC005C08A00065088A11E72195
:100FAA008A1183120313DD00DE015D08AB005E08BF
:100FBA00AC008A11A7228A11831203132908303E32
:100FCA00DF005F08F1004130DC005C08F2006D30A0
:100FDA008A1163228A11A62E831367308400743023
:100FEA008A11CD218A11A0308400BE308A11CD2108
:060FFA0083018A117F2E25
:02400E00B2FFFF
:00000001FF
