:100000008A11E12F8A11EB2B8A11142C8A113F2CB3
:100010008A116A2C8A11952C8A11C02C8A11EB2C1A
:0C0020008A11162D8A11412D8A116C2DB9
:1001060064008001840A0406031900340406842866
:1001160083120313D10051080F39D0005008D200C2
:10012600520808007E088A007F08820095208A11FE
:100136008000840A04087D0603190034FF0A0319A7
:10014600FE0A99280F340F3400340034003400348A
:1001560000340034003400340034003400340034F9
:100166001E340E3483120313D3005308860052083C
:10017600031DBF280510C028051485108A11C72045
:10018600831203138514080083120313D001D101CF
:100196005108803AFF0080307F02031DD4281330B7
:1001A600500203180800013083120313D007031806
:1001B600D10A0030D107CB288316031387140714FE
:1001C600203083120313D000D00BE728EA288316C9
:1001D60003130710203083120313D000D00BF1282D
:1001E600F428831603138710080083120313D30021
:1001F600530886005008031D02290514032905101B
:100206008510213083120313D2007630D100D10B32
:100216000A29D20B0A2983120313851408008312B4
:100226000313D5002529D201550880388A11B52037
:10023600080083120313D2015508403E80388A1104
:10024600B5200800831203135408003A031916292F
:10025600013A03191C292F290800831603130710D6
:10026600203083120313D000D00B37293A29831686
:1002760003138714203083120313D000D00B4129B7
:100286004429831603130714203083120313D00066
:10029600D00B4B294E2908001F341F34183418344C
:1002A600183418341F341F341E341E3406340634F2
:1002B600063406341E341E34063406340634063438
:1002C600063406341E341E341834183418341834E0
:1002D600183418341E341E341E341E3406340634C4
:1002E60006340634063406341E341E3418341834E4
:1002F600183418341834183483120313D4005003F6
:10030600031D96295408D10004300310D10CFF3E7A
:10031600031D88295108D2005208D4005408033915
:10032600D1005108D3005008031DA5295408D10057
:1003360004300310D10CFF3E031D9C295108D20046
:100346005208D30002305006031DBA295408D100C2
:1003560004300310D10CFF3E031DAC295108D20016
:100366005208D40054080139D1005108D30053086B
:10037600080083120313D100D20108305202031879
:10038600F829203083120313D000D00BC829CB29BB
:1003960083120313D11FD329831603130714D629F7
:1003A600831603130710203083120313D000D00BDB
:1003B600DA29DD2983160313871403108312031326
:1003C600D10D203083120313D000D00BE829EB297E
:1003D600831603138710013083120313D0005008CD
:1003E600D20708305202031CC4292030831203139B
:1003F600D000D00BFC29FF29203083120313D00034
:10040600D00B032A062A83160313071487142030F9
:1004160083120313D000D00B0E2A112A831603135E
:1004260087100710080083120313D301D401831623
:100436000313071483120313D5010830550203185A
:100446004D2A01300310D30DD40DFF3E031D252A7E
:10045600203083120313D200D20B2F2A322A83169E
:1004660003138714203083120313D200D20B392AC8
:100476003C2A831203130718531483160313871099
:10048600013083120313D2005208D50708305502F3
:10049600031C242A83160313071020308312031328
:1004A600D200D20B542A572A8316031387142030FE
:1004B60083120313D200D20B5E2A612A831603131A
:1004C6008710203083120313D200D20B682A6B2ABE
:1004D600831203135408D1005308D0000800831276
:1004E6000313D301D40183160313071483120313D2
:1004F600D501083055020318A92A01300310D30D7F
:10050600D40DFF3E031D812A203083120313D2002F
:10051600D20B8B2A8E2A831603138714203083125C
:100526000313D200D20B952A982A831203130718B5
:100536005314831603138710013083120313D2005A
:100546005208D50708305502031C802A8316031368
:100556000714203083120313D200D20BB02AB32A19
:10056600831603138714203083120313D200D20B91
:10057600BA2ABD2A83160313871020308312031369
:10058600D200D20BC42AC72A831203135408D100FF
:100596005308D0000800063083120313D800133026
:1005A600D700AD30D600D60BD62AD70BD62AD80B15
:1005B600D62A00008A11DF208A11A0308A11BC21B8
:1005C6008A1102308A11BC218A118A1130218A11BE
:1005D6008A11DF208A11A1308A11BC218A118A1161
:1005E60072228A11831203135008D6005608D900C6
:1005F6008A1130218A1183120313D91F08008A1128
:10060600DF208A11A0308A11BC218A1102308A119A
:10061600BC218A1140308A11BC218A1100308A110E
:10062600BC218A11C0308A11BC218A1101308A117D
:10063600BC218A1101308A11BC218A1101308A112C
:10064600BC218A1121308A11BC218A1101308A11FC
:10065600BC218A1100308A11BC218A1100308A110E
:10066600BC218A1100308A11BC218A118A113021DD
:100676000800413083120313D500EE30D400D40BAA
:10068600422BD50B422B83120313D20130308A1131
:10069600B5208A11413083120313D500EE30D40001
:1006A600D40B532BD50B532B83120313D2013030AB
:1006B6008A11B5208A110C3083120313D400D40B8F
:1006C600622B652B83120313D20130308A11B520B9
:1006D6008A110C3083120313D400D40B702B732BA6
:1006E60083120313D2013C308A11B5208A110C30D3
:1006F60083120313D400D40B7E2B812B8312031396
:10070600D2010C308A11B5208A110C3083120313E2
:10071600D400D40B8C2B8F2B83120313D201013000
:100726008A11B5208A11033083120313D50097303E
:10073600D400D40B9C2BD50B9C2B000083120313E7
:10074600D20107308A11B5208A110C3083120313A7
:10075600D400D40BAC2BAF2B83120313D20114306D
:100766008A11B5208A110C3083120313D400D40BDE
:10077600BA2BBD2B83120313D20102308A11B52086
:100786008A110C3083120313D400D40BC82BCB2B45
:1007960083120313D20140308A11B5208A110C301E
:1007A60083120313D400D40BD62BD92B8312031335
:1007B600D20106308A11B5208A1183120313D201A1
:1007C60080308A11B520080083120313D800972DB4
:1007D600D40156088A1112218A1183120313D001FB
:1007E60000308A11F8208A1183120313D0010130D8
:1007F6008A11F8208A1183120313D401D40A5708E8
:100806008A1112218A1183120313D00102308A1130
:10081600F8208A1183120313D00103308A11F820BD
:10082600080083120313D40156088A1112218A1173
:1008360083120313D00101308A11F8208A11831222
:100846000313D00120308A11F8208A118312031372
:10085600D401D40A57088A1112218A11831203136C
:10086600D00103308A11F8208A1183120313D001B4
:1008760006308A11F820080083120313D4015608A3
:100886008A1112218A1183120313D00107308A11AB
:10089600F8208A1183120313D00104308A11F8203C
:1008A6008A1183120313D401D40A57088A1112211C
:1008B6008A1183120313D00105308A11F8208A1198
:1008C60083120313D00106308A11F8200800831220
:1008D6000313D40156088A1112218A1183120313B5
:1008E600D00107308A11F8208A1183120313D00130
:1008F60004308A11F8208A1183120313D401D40A12
:1009060057088A1112218A1183120313D001063067
:100916008A11F8208A1183120313D00103308A1139
:10092600F820080083120313D40156088A111221F5
:100936008A1183120313D00102308A11F8208A111A
:1009460083120313D00103308A11F8208A1183120F
:100956000313D401D40A57088A1112218A1183126B
:100966000313D00120308A11F8208A118312031351
:10097600D00101308A11F820080083120313D40134
:1009860056088A1112218A1183120313D0010530E9
:100996008A11F8208A1183120313D00107308A11B5
:1009A600F8208A1183120313D401D40A57088A1136
:1009B60012218A1183120313D00106308A11F820FE
:1009C6008A1183120313D00104308A11F82008001B
:1009D60083120313D40156088A1112218A11831235
:1009E6000313D00100308A11F8208A1183120313F1
:1009F600D00120308A11F8208A1183120313D40102
:100A0600D40A57088A1112218A1183120313D001BE
:100A160005308A11F8208A1183120313D00104309D
:100A26008A11F820080083120313D40156088A118C
:100A360012218A1183120313D00107308A11F8207C
:100A46008A1183120313D00101308A11F8208A110A
:100A560083120313D401D40A57088A1112218A116A
:100A660083120313D00120308A11F8208A118312D1
:100A76000313D00101308A11F820080083120313F2
:100A8600D40156088A1112218A1183120313D00148
:100A960005308A11F8208A1183120313D00104301D
:100AA6008A11F8208A1183120313D401D40A570835
:100AB6008A1112218A1183120313D00102308A117E
:100AC600F8208A1183120313D00103308A11F8200B
:100AD600080083120313D40156088A1112218A11C1
:100AE60083120313D00105308A11F8208A1183126C
:100AF6000313D00104308A11F8208A1183120313DC
:100B0600D401D40A57088A1112218A1183120313B9
:100B1600D00106308A11F8208A1183120313D001FE
:100B260003308A11F8200800831203135808840042
:100B36000A3004020318080000308A000310040D6E
:100B4600023E8200080083160313850183120313F5
:100B56008501033083160313870086011F159F1432
:100B66001F1483120313D20140308A11B5208A1153
:100B760083120313DE0108305E020318DC2DD20156
:100B8600D20A5E08483E8400831300088A11B52005
:100B96008A11423083120313DA00DA0BD02D0130AA
:100BA60083120313DA005A08DE0708305E02031CBC
:100BB600C22DDF0108305F020318FB2DD201D20AD5
:100BC6005F08403E8400831300088A11B5208A110D
:100BD600423083120313DA00DA0BEF2D0130831251
:100BE6000313DA005A08DF0708305F02031CE12D01
:100BF600E0010830600203181A2ED201D20A6008FA
:100C0600383E8400831300088A11B5208A114230C9
:100C160083120313DA00DA0B0E2E0130831203134C
:100C2600DA005A08E00708306002031C002EE101D2
:100C3600083061020318392ED201D20A6108303E0B
:100C46008400831300088A11B5208A11423083126A
:100C56000313DA00DA0B2D2E013083120313DA00A8
:100C66005A08E10708306102031C1F2EE201083012
:100C760062020318582ED201D20A6208283E840066
:100C8600831300088A11B5208A1142308312031398
:100C9600DA00DA0B4C2E013083120313DA005A08FD
:100CA600E20708306202031C3E2EE30108306302AD
:100CB6000318772ED201D20A6308203E84008313DC
:100CC60000088A11B5208A11423083120313DA0014
:100CD600DA0B6B2E013083120313DA005A08E3078E
:100CE60008306302031C5D2EE40108306402031819
:100CF600962ED201D20A6408A83E84008313000807
:100D06008A11B5208A11423083120313DA00DA0BF6
:100D16008A2E013083120313DA005A08E4070830DA
:100D26006402031C7C2EE501083065020318B52E0B
:100D3600D201D20A6508A03E8400831300088A11F6
:100D4600B5208A11423083120313DA00DA0BA92E7A
:100D5600013083120313DA005A08E50708306502EA
:100D6600031C9B2E033083120313DC008A30DB0046
:100D76005530DA00DA0BBD2EDB0BBD2EDC0BBD2E9B
:100D860000008A113C238A11053083120313DC000C
:100D96009130DB00CF30DA00DA0BCF2EDB0BCF2E13
:100DA600DC0BCF2E00008A11CE228A110530831269
:100DB6000313DC009130DB00CF30DA00DA0BE12ED2
:100DC600DB0BE12EDC0BE12E000083120313DD01A9
:100DD6008A11DF208A11A0308A11BC218A110230C3
:100DE6008A11BC218A118A1130218A118A11DF20C9
:100DF6008A11A1308A11BC218A118A1116228A1100
:100E0600831203135008DA005A08F7008A111622D3
:100E16008A11831203135008DA005A08F6008A1161
:100E260016228A11831203135008DA005A08F000BA
:100E36008A1130218A118312031377088A118B20B5
:100E46008A1183120313DA005A08F900D0017708D1
:100E56008A117F218A1183120313DA005A08F800D7
:100E660076088A118B208A1183120313DA005A0836
:100E7600F400D00176088A117F218A1183120313A8
:100E8600DA005A08F30070088A118B208A1183123F
:100E96000313DA005A08EE00D001D00A70088A114E
:100EA6007F218A1183120313DA005A08ED00D60156
:100EB600D7016D088A11E7238A11023083120313C2
:100EC600DA005A08D6000230DB005B08D7006E084D
:100ED6008A11E7238A1183120313D40104308A117D
:100EE60012218A1183120313D0012E308A11F820A1
:100EF6008A1183120313D401D40A04308A111221F1
:100F06008A1183120313D001DF308A11F8208A1167
:100F1600053083120313DA005A08D6000530DB00C9
:100F26005B08D70073088A11E7238A1107308312FA
:100F36000313DA005A08D6000730DB005B08D70037
:100F460074088A11E7238A1183120313D401093026
:100F56008A1112218A1183120313D0012E308A11AD
:100F6600F8208A1183120313D401D40A09308A1196
:100F760012218A1183120313D001DF308A11F8205F
:100F86008A110A3083120313DA005A08D6000A308F
:100F9600DB005B08D70078088A11E7238A110C303A
:100FA60083120313DA005A08D6000C30DB005B0804
:100FB600D70079088A11E7238A11EB2E8313B03004
:100FC600FD000030FE00A530FF00A03084008A112D
:100FD60099208A115030FD000130FE004F30FF008D
:100FE600203084008A1199208A11663084007B3073
:0A0FF6008A11832083018A11A62DC1
:02400E00B2FFFF
:00000001FF
