:040000008A11E62F4C
:1000080083120313A001A1012108803AFF00803068
:100018007F02031D11281330200203180800013045
:1000280083120313A0070318A10A0030A1070828A8
:10003800413083120313A500EE30A400A40B22283C
:10004800A50B222883120313A20130308A158D25AF
:100058008A11413083120313A500EE30A400A40BCB
:100068003328A50B332883120313A20130308A15D5
:100078008D258A110C3083120313A400A40B422887
:10008800452883120313A20130308A158D258A1161
:100098000C3083120313A400A40B50285328831296
:1000A8000313A20138308A158D258A110C3083126A
:1000B8000313A400A40B5E28612883120313A20172
:1000C8000C308A158D258A110C3083120313A40075
:1000D800A40B6C286F2883120313A20101308A1520
:1000E8008D258A11033083120313A5009730A400CD
:1000F800A40B7C28A50B7C28000083120313A20103
:1001080007308A158D258A110C3083120313A40039
:10011800A40B8C288F2883120313A20114308A158C
:100128008D258A110C3083120313A400A40B9A287E
:100138009D2883120313A20102308A158D258A1186
:100148000C3083120313A400A40BA828AB28831235
:100158000313A20140308A158D258A110C308312B1
:100168000313A400A40BB628B92883120313A20111
:1001780006308A158D258A1183120313A201803057
:100188008A158D250800831203133B08BE003C081E
:10019800BF003D08C00003103F0D400DC1004108DD
:1001A800C6004608031DDF280030B8000030B9003B
:1001B8000030BA0008003808BE003908BF003A0805
:1001C800C00003103F0D400DC1004108C70047089B
:1001D800031DF5280030B8000030B9000030BA001F
:1001E80008000030C3000030C4000030C50089306A
:1001F8004707BE003E08C6023B08BE003C08BF00D9
:100208003D08C00010300310C00CBF0CBE0CFF3EF0
:10021800031D07293E08C1004108C7003808BE0071
:100228003908BF003A08C00010300310C00CBF0CDA
:10023800BE0CFF3E031D19293E08C1004108C70630
:100248008030BE003E08C705BC17FF30BB05FF3035
:10025800BC050030BD05B917FF30B805FF30B9053A
:100268000030BA051830BE003E08C2000130031045
:10027800C30DC40DC50DFF3E031D3B293A083D02C1
:10028800031D4C2939083C02031D4C2938083B0240
:10029800031C59293808BB023908031C390FBC0252
:1002A8003A08031C3A0ABD02431401300310BB0D7F
:1002B800BC0DBD0DFF3E031D5A290130C202031DAE
:1002C8003A294308A0004408A1004508A2004608AE
:1002D800BE003E08A3004708BF003F08A4008A15D7
:1002E8000427831203132008B8002108B900220844
:1002F800BA000800831203132808AE002908AF00CB
:100308002A08B00003102F0D300DB1003108B200DB
:100318003208031D96290030A8000030A9000030DB
:10032800AA0008002B08AE002C08AF002D08B0006A
:1003380003102F0D300DB1003108B7003708031D29
:10034800AC290030A8000030A9000030AA0008003D
:1003580037087B3EAE002E08B2072808AE002908F1
:10036800AF002A08B00010300310B00CAF0CAE0C70
:10037800FF3E031DB8292E08B1003108B7002B082D
:10038800AE002C08AF002D08B00010300310B00CE0
:10039800AF0CAE0CFF3E031DCA292E08B100310870
:1003A800B7068030AE002E08B705A917AC17FF3086
:1003B800AB05FF30AC050030AD050030B3000030B0
:1003C800B4000030B5000730AE002E08B600281C77
:1003D800FB292B08B3072C08031103182C0A031D4B
:1003E800B4072D08031103182D0A031DB5070130A2
:1003F8000310AA0CA90CA80CFF3E031DFC29013010
:100408000310AB0DAC0DAD0DFF3E031D042A0130EA
:10041800B602031DEB290930AE002E08B600281CD1
:10042800232A2B08B3072C08031103182C0A031DD1
:10043800B4072D08031103182D0A031DB507013051
:100448000310AA0CA90CA80CFF3E031D242A013096
:100458000310B50CB40CB30CFF3E031D2C2A01305D
:10046800B602031D132A3308A0003408A10035087A
:10047800A2003208AE002E08A3003708AF002F08EC
:10048800A4008A150427831203132008A800210852
:10049800A9002208AA000800003083120313DC0018
:1004A8000030DD000030DE00E001DF010F30831690
:1004B8000313850083120313850183160313870131
:1004C80086011F119F101F14831203131F179F13F8
:1004D8001F148A111C208A118A1104208A11831280
:1004E8000313E101E20100306202043003196102E2
:1004F8000318A12AAB016108D6005607A03E840064
:10050800831300088A15E1258A11C7308312031363
:10051800D6008E2AD60B8D2A912A0000013083122C
:100528000313E1070318E20A0030E2070030620211
:10053800043003196102031C7E2A0430E1000030F4
:10054800E200003062021130031961020318D52A53
:10055800AB016108D6005607A03E8400831300084B
:100568008A15E1258A11063083120313D800133047
:10057800D700AD30D600D60BBF2AD70BBF2AD80B71
:10058800BF2A0000013083120313E1070318E20AAF
:100598000030E20700306202113003196102031CC7
:1005A800AC2AAB01AB0A01308A15E1258A11831206
:1005B80003131F151F19DE2A203083120313D600D8
:1005C800D60BE42AE72A8312031307168712823010
:1005D80083120313D700DD30D600D60BF12AD70BD0
:1005E800F12A000083120313071287160D308312B5
:1005F8000313D700FB30D600D60B002BD70B002BEC
:100608000000831203131E08D600D7015608A8005D
:100618005708A9008A15B2258A11831203132808DE
:10062800DC002908DD002A08DE005C08AB005D0854
:10063800AC005E08AD000030A800E830A9004130E9
:10064800AA008A117E218A11831203132808BB008D
:100658002908BC002A08BD000030B8007F30B90066
:100668004330BA008A11C7208A118312031338084D
:10067800C8003908C9003A08CA008A1572278A11C1
:10068800831203134808D6005608E0005C08AB0044
:100698005D08AC005E08AD000030A800C830A900B5
:1006A8004130AA008A117E218A1183120313280877
:1006B800BB002908BC002A08BD000030B8007F3004
:1006C800B9004330BA008A11C7208A118312031374
:1006D8003808C8003908C9003A08CA008A157227BC
:1006E8008A11831203134808D6005608DF005A08F7
:1006F8005B04031D172C0130DA000030DB00A40175
:1007080000308A15FC258A11831203139F151F12C6
:100718009F120A30A0000030A1006008D600D7015F
:100728005608A2005708A3008A15A9268A11831221
:1007380003132008303ED8005808E5000A30A4000A
:100748000030A5006008D600D7015608A600570853
:10075800A7008A155C268A11831203132408303EE9
:10076800D8005808E6002E30D6005608E7000A30B0
:10077800A4000030A5006430D6005608A000600828
:100788008A159F258A1183120313D700D8015708A9
:10079800A6005808A7008A155C268A11831203133D
:1007A8002408303ED9005908E8000A30A400003077
:1007B800A500E830D6005608A00060088A159F25D5
:1007C8008A1183120313D700D8015708A6005808C6
:1007D800A7008A155C268A11831203132408303E69
:1007E800D9005908E9004230D6005608EA006530B9
:1007F8008A151A268A11831203136008D600D701B6
:100808005608AF005708B0008A11B6248A11823002
:1008180083120313D700DD30D600D60B112CD70B6B
:10082800112C0000DB2A83120313DA01DB01A40177
:1008380007308A15FC258A11831203139F111F168E
:100848009F12AB010A30A0000030A1005F08D6005B
:10085800D7015608A2005708A3008A15A9268A11AD
:10086800831203132008303E8A15E1258A1183126A
:100878000313AB012E308A15E1258A118312031365
:10088800AB010A30A4000030A5005F08D600D701EC
:100898005608A6005708A7008A155C268A118312F5
:1008A80003132408303E8A15E1258A1183120313A5
:1008B800AB010A30A4000030A5006430D600560809
:1008C800A0005F088A159F258A1183120313D70099
:1008D800D8015708A6005808A7008A155C268A116F
:1008E800831203132408303E8A15E1258A118312E6
:1008F8000313AB010A30A4000030A500E830D6008D
:100908005608A0005F088A159F258A1183120313D1
:10091800D700D8015708A6005808A7008A155C26F2
:100928008A11831203132408303E8A15E1258A119F
:1009380083120313A4010C308A15FC258A11831233
:100948000313AB0141308A15E1258A1182308312E5
:100958000313D700DD30D600D60BB02CD70BB02C44
:100968000000DB2AD22F83120313E4010F30640244
:1009780003180800A401A40A64088A15FC258A1132
:1009880083120313AB0120308A15E1258A11013047
:1009980083120313B1003108E407BA2CA401A40A96
:1009A80000308A15FC258A1183120313AB01FF302E
:1009B8008A15E1258A1183120313E4010F306402BA
:1009C80003180800A401A40A6408013E8A15FC253E
:1009D8008A1183120313AB0120308A15E1258A118D
:1009E800013083120313B1003108E407E22CE3015C
:1009F800023063020318172DA401A40A63088A159C
:100A0800FC258A1183120313AB01FF308A15E125F7
:100A18008A11013083120313B1003108E307023051
:100A28006302031C002DE4010F3064020318080060
:100A3800A401A40A6408023E8A15FC258A118312BF
:100A48000313AB0120308A15E1258A110130831286
:100A58000313B1003108E407182DE30103306302E2
:100A680003184D2DA401A40A63088A15FC258A11D0
:100A780083120313AB01FF308A15E1258A11013077
:100A880083120313B1003108E30703306302031C28
:100A9800362DE4010F30640203180800A401A40AEB
:100AA8006408033E8A15FC258A1183120313AB01DF
:100AB80020308A15E1258A11013083120313B10011
:100AC8003108E4074E2DE301043063020318832D37
:100AD800A401A40A63088A15FC258A11831203134A
:100AE800AB01FF308A15E1258A1101308312031307
:100AF800B1003108E30704306302031C6C2DE401E4
:100B08000F30640203180800A401A40A6408043E14
:100B18008A15FC258A1183120313AB0120308A152C
:100B2800E1258A11013083120313B1003108E4076B
:100B3800842DE301053063020318B92DA401A40A2A
:100B480063088A15FC258A1183120313AB01FF3051
:100B58008A15E1258A11013083120313B100310887
:100B6800E30705306302031CA22DE4010F30640281
:100B780003180800A401A40A6408053E8A15FC2588
:100B88008A1183120313AB0120308A15E1258A11DB
:100B9800013083120313B1003108E407BA2DE301D1
:100BA800063063020318EF2DA401A40A63088A150E
:100BB800FC258A1183120313AB01FF308A15E12546
:100BC8008A11013083120313B1003108E30706309C
:100BD8006302031CD82DE4010F30640203180800D7
:100BE800A401A40A6408063E8A15FC258A1183120A
:100BF8000313AB0120308A15E1258A1101308312D5
:100C08000313B1003108E407F02DE3010730630254
:100C18000318252EA401A40A63088A15FC258A1145
:100C280083120313AB01FF308A15E1258A110130C5
:100C380083120313B1003108E30707306302031C72
:100C48000E2EE4010F30640203180800A401A40A60
:100C58006408073E8A15FC258A1183120313AB0129
:100C680020308A15E1258A11013083120313B1005F
:100C78003108E407262EE3010830630203185B2ECF
:100C8800A401A40A63088A15FC258A118312031398
:100C9800AB01FF308A15E1258A1101308312031355
:100CA800B1003108E30708306302031C442EE40155
:100CB8000F30640203180800A401A40A6408083E5F
:100CC8008A15FC258A1183120313AB0120308A157B
:100CD800E1258A11013083120313B1003108E407BA
:100CE8005C2EE301093063020318912EA401A40AC3
:100CF80063088A15FC258A1183120313AB01FF30A0
:100D08008A15E1258A11013083120313B1003108D5
:100D1800E30709306302031C7A2EE4010F306402F2
:100D280003180800A401A40A6408093E8A15FC25D2
:100D38008A1183120313AB0120308A15E1258A1129
:100D4800013083120313B1003108E407922EE30146
:100D58000A3063020318C72EA401A40A63088A157F
:100D6800FC258A1183120313AB01FF308A15E12594
:100D78008A11013083120313B1003108E3070A30E6
:100D88006302031CB02EE4010F306402031808004C
:100D9800A401A40A64080A3E8A15FC258A11831254
:100DA8000313AB0120308A15E1258A110130831223
:100DB8000313B1003108E407C82EE3010B306302C6
:100DC8000318FD2EA401A40A63088A15FC258A11BC
:100DD80083120313AB01FF308A15E1258A11013014
:100DE80083120313B1003108E3070B306302031CBD
:100DF800E62EE4010F30640203180800A401A40AD7
:100E080064080B3E8A15FC258A1183120313AB0173
:100E180020308A15E1258A11013083120313B100AD
:100E28003108E407FE2EE3010C3063020318332F68
:100E3800A401A40A63088A15FC258A1183120313E6
:100E4800AB01FF308A15E1258A11013083120313A3
:100E5800B1003108E3070C306302031C1C2FE401C6
:100E68000F30640203180800A401A40A64080C3EA9
:100E78008A15FC258A1183120313AB0120308A15C9
:100E8800E1258A11013083120313B1003108E40708
:100E9800342FE3010D3063020318692FA401A40A5B
:100EA80063088A15FC258A1183120313AB01FF30EE
:100EB8008A15E1258A11013083120313B100310824
:100EC800E3070D306302031C522FE4010F30640264
:100ED80003180800A401A40A64080D3E8A15FC251D
:100EE8008A1183120313AB0120308A15E1258A1178
:100EF800013083120313B1003108E4076A2FE301BC
:100F08000E30630203189F2FA401A40A63088A15F0
:100F1800FC258A1183120313AB01FF308A15E125E2
:100F28008A11013083120313B1003108E3070E3030
:100F38006302031C882FE4010F30640203180800C1
:100F4800A401A40A64080E3E8A15FC258A1183129E
:100F58000313AB0120308A15E1258A110130831271
:100F68000313B1003108E407A02FE3011030630236
:100F780003180800A401A40A63088A15FC258A112D
:100F880083120313AB01FF308A15E1258A11013062
:100F980083120313B1003108E307BA2F8312031336
:100FA8003008003A0319D92FE52F2F0884001F3085
:100FB80004020318080008308A000310040D003EDC
:100FC800820008008313C230FD000E30FE003A3064
:100FD800FF00A03084008A158125E301E401E501C2
:100FE800E601E701E801E901EA01EB01EC01ED01A5
:100FF800EE0183018A11502A8A11B72C8A11D22C4A
:101008008A11D22C8A11FB2C8A11FB2C8A11312DC2
:101018008A11312D8A11672D8A11672D8A119D2D0C
:101028008A119D2D8A11D32D8A11D32D8A11092E4B
:101038008A11092E8A113F2E8A113F2E8A11752E88
:101048008A11752E8A11AB2E8A11AB2E8A11E12EC8
:101058008A11E12E8A11172F8A11172F8A114D2F05
:101068008A114D2F8A11832F8A11832F8A11B92F44
:041078008A11B92FF1
:101AFA007E088A007F0882007D258A158000840A74
:101B0A0004087D0603190034FF0A0319FE0A812D11
:101B1A0083120313A300230886002208031D972DAE
:101B2A000713982D071787138A15C92583120313DC
:101B3A008717080083120313A300A201231CA92DEF
:101B4A002008A1002108A2070310A00D0310A30C6E
:101B5A002308031DA32D2208080083120313280853
:101B6A00A0002908A100A2018E30AB002B08A30017
:101B7A00A4018A150427831203132008A800210848
:101B8A00A9002208AA00080083120313A001A101D8
:101B9A002108803AFF0080307F02031DD62D1330C2
:101BAA00200203180800013083120313A007031848
:101BBA00A10A0030A107CD2D83120313AE002E080F
:101BCA0086002B08031DEB2D0717EC2D071387132F
:101BDA00073083120313AD007C30AC00AC0BF32D3D
:101BEA00AD0BF32DF82D8312031387170800831208
:101BFA000313A5000F2EA201250880388A158D250A
:101C0A00080083120313A2012508403E80388A1572
:101C1A008D250800831203132408003A0319002EA5
:101C2A00013A0319062E192E080083120313A50080
:101C3A00A60126082507A4002408840083130008A7
:101C4A0003190800A201A20A26082507A4002408ED
:101C5A008400831300088A158D258A1501308312A2
:101C6A000313A4002408A6071E2E4C3400344C3457
:101C7A0000344F34003441340034443400342E34B8
:101C8A0000342E3400342E3400342E3400342E34F2
:101C9A0000342E3400342E3400342E3400342E34E2
:101CAA0000342E3400342E3400342E34003483129F
:101CBA000313AA01A71F682EA609A709A60A0319D2
:101CCA00A70AAA01AA0AA51F6F2EA409A509A40A90
:101CDA000319A50A2408250403199C2EA901A90A97
:101CEA00A51B832E01300310A40DA50DFF3E031D75
:101CFA00782E0130A8002808A907752E2508270282
:101D0A00031D892E24082602031C912E2408A602EC
:101D1A002508031CA703A70201300310A50CA40C75
:101D2A00FF3E031D922E0130A902031D832E2A08AD
:101D3A000319A42EA609A709A60A0319A70A2708A0
:101D4A00A5002608A400080083120313A601A11FF8
:101D5A00B52EA009A109A00A0319A10AA601A60A7B
:101D6A00A31FC02EA209A309A20A0319A30A0130BC
:101D7A00A4002408A606A701A80120082104031923
:101D8A00F72EA501A50AA11BD62E01300310A00D1E
:101D9A00A10DFF3E031DCB2E0130A4002408A50788
:101DAA00C82E01300310A70DA80DFF3E031DD72E24
:101DBA0021082302031DE32E20082202031CEC2E15
:101DCA002008A2022108031CA303A302271401303E
:101DDA000310A10CA00CFF3E031DED2E0130A5023D
:101DEA00031DD62E26080319FF2EA709A809A70A3C
:101DFA000319A80A2808A1002708A00008008312CE
:101E0A000313230803190E2F220821042004031D9B
:101E1A00212F0030A0000030A1000030A2000800ED
:101E2A000130A5002508A30701300310A20CA10C5C
:101E3A00A00CFF3E031D1A2FFE30220503193C2F6A
:101E4A00152F0130A5002508A3070130A00700308F
:101E5A0003180130A107003003180130A20701302E
:101E6A000310A20CA10CA00CFF3E031D352FFF305E
:101E7A00220503194B2F262F0130A302013003102C
:101E8A00A00DA10DA20DFF3E031D442FA11B512F32
:101E9A00023023020318412F2318592FFF30A005BF
:101EAA007F30A105FF30A2050310A30C2308A5006B
:101EBA00A601A70110300310A50DA60DA70DFF3E20
:101ECA00031D602F2508A0042608A1042708A204E0
:101EDA00240803190800A2170800831203134808EC
:101EEA00CC004908CD004A08CE0003104D0D4E0D16
:101EFA00CF004F08D5005508031D8C2F0030CB00AA
:101F0A000030CA000030C9000030C8000800480884
:101F1A00CC004908CD004A08CE0017300310CE0C79
:101F2A00CD0CCC0CFF3E031D932F4C08CF004F085D
:101F3A00D000C917FF30C805FF30C9050030CA05EF
:101F4A004808D1004908D2004A08D300D4018E308B
:101F5A00D502D51FCE2F5508803A8F3E0318BE2FC3
:101F6A000030CB000030CA000030C9000030C80081
:101F7A00080001300310D40CD30CD20CD10CFF3E54
:101F8A00031DBF2F0130CC004C08D5070319E92FD8
:101F9A00BE2F18305502031CE62F0030CB0000304C
:101FAA00CA000030C9000030C80008000130CC0067
:101FBA000310D10DD20DD30DD40DCC0BDD2F013072
:101FCA00D5025508031DDB2F50080319F72FD10935
:101FDA00D209D309D409D10A0319D20A0319D30A97
:101FEA000319D40A5408CB005308CA005208C9007E
:061FFA005108C8000800B8
:02400E00B2FFFF
:00000001FF
